{
  "contractName": "ERC20Token",
  "abi": [
    {
      "inputs": [
        {
          "internalType": "uint256",
          "name": "_initialAmount",
          "type": "uint256"
        },
        {
          "internalType": "string",
          "name": "_tokenName",
          "type": "string"
        },
        {
          "internalType": "uint8",
          "name": "_decimalUnits",
          "type": "uint8"
        },
        {
          "internalType": "string",
          "name": "_tokenSymbol",
          "type": "string"
        }
      ],
      "stateMutability": "nonpayable",
      "type": "constructor"
    },
    {
      "anonymous": false,
      "inputs": [
        {
          "indexed": true,
          "internalType": "address",
          "name": "tokenOwner",
          "type": "address"
        },
        {
          "indexed": true,
          "internalType": "address",
          "name": "spender",
          "type": "address"
        },
        {
          "indexed": false,
          "internalType": "uint256",
          "name": "tokens",
          "type": "uint256"
        }
      ],
      "name": "Approval",
      "type": "event"
    },
    {
      "anonymous": false,
      "inputs": [
        {
          "indexed": true,
          "internalType": "address",
          "name": "from",
          "type": "address"
        },
        {
          "indexed": true,
          "internalType": "address",
          "name": "to",
          "type": "address"
        },
        {
          "indexed": false,
          "internalType": "uint256",
          "name": "tokens",
          "type": "uint256"
        }
      ],
      "name": "Transfer",
      "type": "event"
    },
    {
      "inputs": [
        {
          "internalType": "address",
          "name": "",
          "type": "address"
        },
        {
          "internalType": "address",
          "name": "",
          "type": "address"
        }
      ],
      "name": "allowed",
      "outputs": [
        {
          "internalType": "uint256",
          "name": "",
          "type": "uint256"
        }
      ],
      "stateMutability": "view",
      "type": "function",
      "constant": true
    },
    {
      "inputs": [
        {
          "internalType": "address",
          "name": "",
          "type": "address"
        }
      ],
      "name": "balances",
      "outputs": [
        {
          "internalType": "uint256",
          "name": "",
          "type": "uint256"
        }
      ],
      "stateMutability": "view",
      "type": "function",
      "constant": true
    },
    {
      "inputs": [],
      "name": "decimals",
      "outputs": [
        {
          "internalType": "uint8",
          "name": "",
          "type": "uint8"
        }
      ],
      "stateMutability": "view",
      "type": "function",
      "constant": true
    },
    {
      "inputs": [],
      "name": "name",
      "outputs": [
        {
          "internalType": "string",
          "name": "",
          "type": "string"
        }
      ],
      "stateMutability": "view",
      "type": "function",
      "constant": true
    },
    {
      "inputs": [],
      "name": "symbol",
      "outputs": [
        {
          "internalType": "string",
          "name": "",
          "type": "string"
        }
      ],
      "stateMutability": "view",
      "type": "function",
      "constant": true
    },
    {
      "inputs": [],
      "name": "totSupply",
      "outputs": [
        {
          "internalType": "uint256",
          "name": "",
          "type": "uint256"
        }
      ],
      "stateMutability": "view",
      "type": "function",
      "constant": true
    },
    {
      "inputs": [
        {
          "internalType": "address",
          "name": "_to",
          "type": "address"
        },
        {
          "internalType": "uint256",
          "name": "_value",
          "type": "uint256"
        }
      ],
      "name": "transfer",
      "outputs": [
        {
          "internalType": "bool",
          "name": "success",
          "type": "bool"
        }
      ],
      "stateMutability": "nonpayable",
      "type": "function"
    },
    {
      "inputs": [
        {
          "internalType": "address",
          "name": "_from",
          "type": "address"
        },
        {
          "internalType": "address",
          "name": "_to",
          "type": "address"
        },
        {
          "internalType": "uint256",
          "name": "_value",
          "type": "uint256"
        }
      ],
      "name": "transferFrom",
      "outputs": [
        {
          "internalType": "bool",
          "name": "success",
          "type": "bool"
        }
      ],
      "stateMutability": "nonpayable",
      "type": "function"
    },
    {
      "inputs": [
        {
          "internalType": "address",
          "name": "_owner",
          "type": "address"
        }
      ],
      "name": "balanceOf",
      "outputs": [
        {
          "internalType": "uint256",
          "name": "balance",
          "type": "uint256"
        }
      ],
      "stateMutability": "view",
      "type": "function",
      "constant": true
    },
    {
      "inputs": [
        {
          "internalType": "address",
          "name": "_spender",
          "type": "address"
        },
        {
          "internalType": "uint256",
          "name": "_value",
          "type": "uint256"
        }
      ],
      "name": "approve",
      "outputs": [
        {
          "internalType": "bool",
          "name": "success",
          "type": "bool"
        }
      ],
      "stateMutability": "nonpayable",
      "type": "function"
    },
    {
      "inputs": [
        {
          "internalType": "address",
          "name": "_owner",
          "type": "address"
        },
        {
          "internalType": "address",
          "name": "_spender",
          "type": "address"
        }
      ],
      "name": "allowance",
      "outputs": [
        {
          "internalType": "uint256",
          "name": "remaining",
          "type": "uint256"
        }
      ],
      "stateMutability": "view",
      "type": "function",
      "constant": true
    },
    {
      "inputs": [],
      "name": "totalSupply",
      "outputs": [
        {
          "internalType": "uint256",
          "name": "totSupp",
          "type": "uint256"
        }
      ],
      "stateMutability": "view",
      "type": "function",
      "constant": true
    }
  ],
  "bytecode": "0x60806040523480156200001157600080fd5b506040516200164f3803806200164f8339818101604052810190620000379190620002d6565b836000803373ffffffffffffffffffffffffffffffffffffffff1673ffffffffffffffffffffffffffffffffffffffff16815260200190815260200160002081905550836002819055508260039081620000929190620005c7565b5081600460006101000a81548160ff021916908360ff1602179055508060059081620000bf9190620005c7565b5050505050620006ae565b6000604051905090565b600080fd5b600080fd5b6000819050919050565b620000f381620000de565b8114620000ff57600080fd5b50565b6000815190506200011381620000e8565b92915050565b600080fd5b600080fd5b6000601f19601f8301169050919050565b7f4e487b7100000000000000000000000000000000000000000000000000000000600052604160045260246000fd5b6200016e8262000123565b810181811067ffffffffffffffff8211171562000190576200018f62000134565b5b80604052505050565b6000620001a5620000ca565b9050620001b3828262000163565b919050565b600067ffffffffffffffff821115620001d657620001d562000134565b5b620001e18262000123565b9050602081019050919050565b60005b838110156200020e578082015181840152602081019050620001f1565b60008484015250505050565b6000620002316200022b84620001b8565b62000199565b90508281526020810184848401111562000250576200024f6200011e565b5b6200025d848285620001ee565b509392505050565b600082601f8301126200027d576200027c62000119565b5b81516200028f8482602086016200021a565b91505092915050565b600060ff82169050919050565b620002b08162000298565b8114620002bc57600080fd5b50565b600081519050620002d081620002a5565b92915050565b60008060008060808587031215620002f357620002f2620000d4565b5b6000620003038782880162000102565b945050602085015167ffffffffffffffff811115620003275762000326620000d9565b5b620003358782880162000265565b93505060406200034887828801620002bf565b925050606085015167ffffffffffffffff8111156200036c576200036b620000d9565b5b6200037a8782880162000265565b91505092959194509250565b600081519050919050565b7f4e487b7100000000000000000000000000000000000000000000000000000000600052602260045260246000fd5b60006002820490506001821680620003d957607f821691505b602082108103620003ef57620003ee62000391565b5b50919050565b60008190508160005260206000209050919050565b60006020601f8301049050919050565b600082821b905092915050565b600060088302620004597fffffffffffffffffffffffffffffffffffffffffffffffffffffffffffffffff826200041a565b6200046586836200041a565b95508019841693508086168417925050509392505050565b6000819050919050565b6000620004a8620004a26200049c84620000de565b6200047d565b620000de565b9050919050565b6000819050919050565b620004c48362000487565b620004dc620004d382620004af565b84845462000427565b825550505050565b600090565b620004f3620004e4565b62000500818484620004b9565b505050565b5b8181101562000528576200051c600082620004e9565b60018101905062000506565b5050565b601f82111562000577576200054181620003f5565b6200054c846200040a565b810160208510156200055c578190505b620005746200056b856200040a565b83018262000505565b50505b505050565b600082821c905092915050565b60006200059c600019846008026200057c565b1980831691505092915050565b6000620005b7838362000589565b9150826002028217905092915050565b620005d28262000386565b67ffffffffffffffff811115620005ee57620005ed62000134565b5b620005fa8254620003c0565b620006078282856200052c565b600060209050601f8311600181146200063f57600084156200062a578287015190505b620006368582620005a9565b865550620006a6565b601f1984166200064f86620003f5565b60005b82811015620006795784890151825560018201915060208501945060208101905062000652565b8683101562000699578489015162000695601f89168262000589565b8355505b6001600288020188555050505b505050505050565b610f9180620006be6000396000f3fe608060405234801561001057600080fd5b50600436106100b45760003560e01c80635c658165116100715780635c658165146101a357806370a08231146101d357806381fbf0a51461020357806395d89b4114610221578063a9059cbb1461023f578063dd62ed3e1461026f576100b4565b806306fdde03146100b9578063095ea7b3146100d757806318160ddd1461010757806323b872dd1461012557806327e235e314610155578063313ce56714610185575b600080fd5b6100c161029f565b6040516100ce9190610aee565b60405180910390f35b6100f160048036038101906100ec9190610ba9565b61032d565b6040516100fe9190610c04565b60405180910390f35b61010f61041f565b60405161011c9190610c2e565b60405180910390f35b61013f600480360381019061013a9190610c49565b610429565b60405161014c9190610c04565b60405180910390f35b61016f600480360381019061016a9190610c9c565b61070f565b60405161017c9190610c2e565b60405180910390f35b61018d610727565b60405161019a9190610ce5565b60405180910390f35b6101bd60048036038101906101b89190610d00565b61073a565b6040516101ca9190610c2e565b60405180910390f35b6101ed60048036038101906101e89190610c9c565b61075f565b6040516101fa9190610c2e565b60405180910390f35b61020b6107a7565b6040516102189190610c2e565b60405180910390f35b6102296107ad565b6040516102369190610aee565b60405180910390f35b61025960048036038101906102549190610ba9565b61083b565b6040516102669190610c04565b60405180910390f35b61028960048036038101906102849190610d00565b6109d7565b6040516102969190610c2e565b60405180910390f35b600380546102ac90610d6f565b80601f01602080910402602001604051908101604052809291908181526020018280546102d890610d6f565b80156103255780601f106102fa57610100808354040283529160200191610325565b820191906000526020600020905b81548152906001019060200180831161030857829003601f168201915b505050505081565b600081600160003373ffffffffffffffffffffffffffffffffffffffff1673ffffffffffffffffffffffffffffffffffffffff16815260200190815260200160002060008573ffffffffffffffffffffffffffffffffffffffff1673ffffffffffffffffffffffffffffffffffffffff168152602001908152602001600020819055508273ffffffffffffffffffffffffffffffffffffffff163373ffffffffffffffffffffffffffffffffffffffff167f8c5be1e5ebec7d5bd14f71427d1e84f3dd0314c0f7b2291e5b200ac8c7c3b9258460405161040d9190610c2e565b60405180910390a36001905092915050565b6000600254905090565b600080600160008673ffffffffffffffffffffffffffffffffffffffff1673ffffffffffffffffffffffffffffffffffffffff16815260200190815260200160002060003373ffffffffffffffffffffffffffffffffffffffff1673ffffffffffffffffffffffffffffffffffffffff168152602001908152602001600020549050826000808773ffffffffffffffffffffffffffffffffffffffff1673ffffffffffffffffffffffffffffffffffffffff16815260200190815260200160002054101580156104f95750828110155b610538576040517f08c379a000000000000000000000000000000000000000000000000000000000815260040161052f90610e12565b60405180910390fd5b826000808673ffffffffffffffffffffffffffffffffffffffff1673ffffffffffffffffffffffffffffffffffffffff16815260200190815260200160002060008282546105869190610e61565b92505081905550826000808773ffffffffffffffffffffffffffffffffffffffff1673ffffffffffffffffffffffffffffffffffffffff16815260200190815260200160002060008282546105db9190610e95565b925050819055507fffffffffffffffffffffffffffffffffffffffffffffffffffffffffffffffff81101561069e5782600160008773ffffffffffffffffffffffffffffffffffffffff1673ffffffffffffffffffffffffffffffffffffffff16815260200190815260200160002060003373ffffffffffffffffffffffffffffffffffffffff1673ffffffffffffffffffffffffffffffffffffffff16815260200190815260200160002060008282546106969190610e95565b925050819055505b8373ffffffffffffffffffffffffffffffffffffffff168573ffffffffffffffffffffffffffffffffffffffff167fddf252ad1be2c89b69c2b068fc378daa952ba7f163c4a11628f55a4df523b3ef856040516106fb9190610c2e565b60405180910390a360019150509392505050565b60006020528060005260406000206000915090505481565b600460009054906101000a900460ff1681565b6001602052816000526040600020602052806000526040600020600091509150505481565b60008060008373ffffffffffffffffffffffffffffffffffffffff1673ffffffffffffffffffffffffffffffffffffffff168152602001908152602001600020549050919050565b60025481565b600580546107ba90610d6f565b80601f01602080910402602001604051908101604052809291908181526020018280546107e690610d6f565b80156108335780601f1061080857610100808354040283529160200191610833565b820191906000526020600020905b81548152906001019060200180831161081657829003601f168201915b505050505081565b6000816000803373ffffffffffffffffffffffffffffffffffffffff1673ffffffffffffffffffffffffffffffffffffffff1681526020019081526020016000205410156108be576040517f08c379a00000000000000000000000000000000000000000000000000000000081526004016108b590610f3b565b60405180910390fd5b816000803373ffffffffffffffffffffffffffffffffffffffff1673ffffffffffffffffffffffffffffffffffffffff168152602001908152602001600020600082825461090c9190610e95565b92505081905550816000808573ffffffffffffffffffffffffffffffffffffffff1673ffffffffffffffffffffffffffffffffffffffff16815260200190815260200160002060008282546109619190610e61565b925050819055508273ffffffffffffffffffffffffffffffffffffffff163373ffffffffffffffffffffffffffffffffffffffff167fddf252ad1be2c89b69c2b068fc378daa952ba7f163c4a11628f55a4df523b3ef846040516109c59190610c2e565b60405180910390a36001905092915050565b6000600160008473ffffffffffffffffffffffffffffffffffffffff1673ffffffffffffffffffffffffffffffffffffffff16815260200190815260200160002060008373ffffffffffffffffffffffffffffffffffffffff1673ffffffffffffffffffffffffffffffffffffffff16815260200190815260200160002054905092915050565b600081519050919050565b600082825260208201905092915050565b60005b83811015610a98578082015181840152602081019050610a7d565b60008484015250505050565b6000601f19601f8301169050919050565b6000610ac082610a5e565b610aca8185610a69565b9350610ada818560208601610a7a565b610ae381610aa4565b840191505092915050565b60006020820190508181036000830152610b088184610ab5565b905092915050565b600080fd5b600073ffffffffffffffffffffffffffffffffffffffff82169050919050565b6000610b4082610b15565b9050919050565b610b5081610b35565b8114610b5b57600080fd5b50565b600081359050610b6d81610b47565b92915050565b6000819050919050565b610b8681610b73565b8114610b9157600080fd5b50565b600081359050610ba381610b7d565b92915050565b60008060408385031215610bc057610bbf610b10565b5b6000610bce85828601610b5e565b9250506020610bdf85828601610b94565b9150509250929050565b60008115159050919050565b610bfe81610be9565b82525050565b6000602082019050610c196000830184610bf5565b92915050565b610c2881610b73565b82525050565b6000602082019050610c436000830184610c1f565b92915050565b600080600060608486031215610c6257610c61610b10565b5b6000610c7086828701610b5e565b9350506020610c8186828701610b5e565b9250506040610c9286828701610b94565b9150509250925092565b600060208284031215610cb257610cb1610b10565b5b6000610cc084828501610b5e565b91505092915050565b600060ff82169050919050565b610cdf81610cc9565b82525050565b6000602082019050610cfa6000830184610cd6565b92915050565b60008060408385031215610d1757610d16610b10565b5b6000610d2585828601610b5e565b9250506020610d3685828601610b5e565b9150509250929050565b7f4e487b7100000000000000000000000000000000000000000000000000000000600052602260045260246000fd5b60006002820490506001821680610d8757607f821691505b602082108103610d9a57610d99610d40565b5b50919050565b7f496e73756666696369656e7420616c6c6f7765642066756e647320666f72207460008201527f72616e7366657220736f757263652e0000000000000000000000000000000000602082015250565b6000610dfc602f83610a69565b9150610e0782610da0565b604082019050919050565b60006020820190508181036000830152610e2b81610def565b9050919050565b7f4e487b7100000000000000000000000000000000000000000000000000000000600052601160045260246000fd5b6000610e6c82610b73565b9150610e7783610b73565b9250828201905080821115610e8f57610e8e610e32565b5b92915050565b6000610ea082610b73565b9150610eab83610b73565b9250828203905081811115610ec357610ec2610e32565b5b92915050565b7f496e73756666696369656e742066756e647320666f72207472616e736665722060008201527f736f757263652e00000000000000000000000000000000000000000000000000602082015250565b6000610f25602783610a69565b9150610f3082610ec9565b604082019050919050565b60006020820190508181036000830152610f5481610f18565b905091905056fea26469706673582212208a8c9377d0a0540a99d36f4d6d0ffe77e86e217ca714c875a79becc3a8c9846364736f6c63430008130033",
  "immutableReferences": {},
  "source": "// ----------------------------------------------------------------------------\r\n///Implements EIP20 token standard: https://github.com/ethereum/EIPs/blob/master/EIPS/eip-20.md\r\n// ----------------------------------------------------------------------------\r\n\r\n// SPDX-License-Identifier: MIT\r\npragma solidity ^0.8.0;\r\n\r\nimport \"./erc20Interface.sol\";\r\n\r\ncontract ERC20Token is ERC20Interface {\r\n\r\n    uint256 constant private MAX_UINT256 = 2**256 - 1;\r\n    mapping (address => uint256) public balances;\r\n    mapping (address => mapping (address => uint256)) public allowed;\r\n\r\n    uint256 public totSupply;           // Total number of tokens\r\n    string public name;                   // Descriptive name (i.e. For Dummies Sample Token)\r\n    uint8 public decimals;                // How many decimals to use when displaying amounts\r\n    string public symbol;                 // Short identifier for token (i.e. FDT)\r\n\r\n    // Create the new token and assign initial values, including initial amount\r\n    constructor(\r\n        uint256 _initialAmount,\r\n        string memory _tokenName,\r\n        uint8 _decimalUnits,\r\n        string memory _tokenSymbol\r\n\r\n    ) { \r\n        balances[msg.sender] = _initialAmount;               // The creator owns all initial tokens\r\n        totSupply = _initialAmount;                        // Update total token supply\r\n        name = _tokenName;                                   // Store the token name (used for display only)\r\n        decimals = _decimalUnits;                            // Store the number of decimals (used for display only)\r\n        symbol = _tokenSymbol;                               // Store the token symbol (used for display only)\r\n    }\r\n\r\n    // Transfer tokens from msg.sender to a specified address\r\n    function transfer(address _to, uint256 _value) public returns (bool success) {\r\n        require(balances[msg.sender] >= _value,\"Insufficient funds for transfer source.\");\r\n        balances[msg.sender] -= _value;\r\n        balances[_to] += _value;\r\n        emit Transfer(msg.sender, _to, _value); //solhint-disable-line indent, no-unused-vars\r\n        return true;\r\n    }\r\n\r\n    // Transfer tokens from one specified address to another specified address\r\n    function transferFrom(address _from, address _to, uint256 _value) public returns (bool success) {\r\n        uint256 currentAllowance = allowed[_from][msg.sender];\r\n        require(balances[_from] >= _value && currentAllowance >= _value, \"Insufficient allowed funds for transfer source.\");\r\n\r\n        balances[_to] += _value;\r\n        balances[_from] -= _value;\r\n\r\n        if (currentAllowance < MAX_UINT256) {\r\n            allowed[_from][msg.sender] -= _value;\r\n        }\r\n\r\n        emit Transfer(_from, _to, _value);\r\n        return true;\r\n    }\r\n\r\n    // Return the current balance (in tokens) of a specified address\r\n    function balanceOf(address _owner) public view returns (uint256 balance) {\r\n        return balances[_owner];\r\n    }\r\n\r\n    // Set\r\n    function approve(address _spender, uint256 _value) public returns (bool success) {\r\n        allowed[msg.sender][_spender] = _value;\r\n        emit Approval(msg.sender, _spender, _value); //solhint-disable-line indent, no-unused-vars\r\n        return true;\r\n    }\r\n\r\n    // Return the\r\n    function allowance(address _owner, address _spender) public view returns (uint256 remaining) {\r\n        return allowed[_owner][_spender];\r\n    }\r\n\r\n    // Return the total number of tokens in circulation\r\n    function totalSupply() public view returns (uint256 totSupp) {\r\n        return totSupply;\r\n    }\r\n}",
  "sourcePath": "/Users/thanushkawickramarachchi/Documents/blockchain_poject/workplace/supplyChainApp/contracts/erc20Token.sol",
  "compiler": {
    "name": "solc",
    "version": "0.8.19+commit.7dd6d404.Emscripten.clang"
  },
  "schemaVersion": "3.4.16",
  "updatedAt": "2025-06-13T06:14:16.154Z",
  "networkType": "ethereum",
  "devdoc": {
    "kind": "dev",
    "methods": {},
    "version": 1
  },
  "userdoc": {
    "kind": "user",
    "methods": {},
    "version": 1
  }
}